{"abi":[{"type":"constructor","inputs":[{"name":"owner_","type":"address","internalType":"address"}],"stateMutability":"nonpayable"},{"type":"receive","stateMutability":"payable"},{"type":"function","name":"BAD_RESPONSE_THRESHOLD","inputs":[],"outputs":[{"name":"","type":"uint256","internalType":"uint256"}],"stateMutability":"view"},{"type":"function","name":"MIN_STAKE","inputs":[],"outputs":[{"name":"","type":"uint256","internalType":"uint256"}],"stateMutability":"view"},{"type":"function","name":"REPUTATION_BAD","inputs":[],"outputs":[{"name":"","type":"uint256","internalType":"uint256"}],"stateMutability":"view"},{"type":"function","name":"REPUTATION_GOOD","inputs":[],"outputs":[{"name":"","type":"uint256","internalType":"uint256"}],"stateMutability":"view"},{"type":"function","name":"REPUTATION_MAX","inputs":[],"outputs":[{"name":"","type":"uint256","internalType":"uint256"}],"stateMutability":"view"},{"type":"function","name":"REPUTATION_START","inputs":[],"outputs":[{"name":"","type":"uint256","internalType":"uint256"}],"stateMutability":"view"},{"type":"function","name":"SLASH_BPS","inputs":[],"outputs":[{"name":"","type":"uint256","internalType":"uint256"}],"stateMutability":"view"},{"type":"function","name":"addStake","inputs":[{"name":"id","type":"uint256","internalType":"uint256"}],"outputs":[],"stateMutability":"payable"},{"type":"function","name":"getOwnerServices","inputs":[{"name":"owner","type":"address","internalType":"address"}],"outputs":[{"name":"","type":"uint256[]","internalType":"uint256[]"}],"stateMutability":"view"},{"type":"function","name":"getRatings","inputs":[{"name":"id","type":"uint256","internalType":"uint256"}],"outputs":[{"name":"","type":"tuple[]","internalType":"struct ServiceRegistry.Rating[]","components":[{"name":"rater","type":"address","internalType":"address"},{"name":"serviceId","type":"uint256","internalType":"uint256"},{"name":"score","type":"uint8","internalType":"uint8"},{"name":"evidenceURI","type":"string","internalType":"string"},{"name":"timestamp","type":"uint256","internalType":"uint256"}]}],"stateMutability":"view"},{"type":"function","name":"getService","inputs":[{"name":"id","type":"uint256","internalType":"uint256"}],"outputs":[{"name":"","type":"tuple","internalType":"struct ServiceRegistry.Service","components":[{"name":"owner","type":"address","internalType":"address"},{"name":"name","type":"string","internalType":"string"},{"name":"capabilitiesURI","type":"string","internalType":"string"},{"name":"pricePerCallWei","type":"uint256","internalType":"uint256"},{"name":"category","type":"uint8","internalType":"enum ServiceRegistry.Category"},{"name":"stakedETH","type":"uint256","internalType":"uint256"},{"name":"reputationScore","type":"uint256","internalType":"uint256"},{"name":"totalCalls","type":"uint256","internalType":"uint256"},{"name":"goodResponses","type":"uint256","internalType":"uint256"},{"name":"badResponses","type":"uint256","internalType":"uint256"},{"name":"registeredAt","type":"uint256","internalType":"uint256"},{"name":"active","type":"bool","internalType":"bool"},{"name":"slashed","type":"bool","internalType":"bool"}]}],"stateMutability":"view"},{"type":"function","name":"getServicesByCategory","inputs":[{"name":"category","type":"uint8","internalType":"enum ServiceRegistry.Category"},{"name":"offset","type":"uint256","internalType":"uint256"},{"name":"limit","type":"uint256","internalType":"uint256"}],"outputs":[{"name":"ids","type":"uint256[]","internalType":"uint256[]"},{"name":"total","type":"uint256","internalType":"uint256"}],"stateMutability":"view"},{"type":"function","name":"lastRatingTime","inputs":[{"name":"","type":"address","internalType":"address"},{"name":"","type":"uint256","internalType":"uint256"}],"outputs":[{"name":"","type":"uint256","internalType":"uint256"}],"stateMutability":"view"},{"type":"function","name":"owner","inputs":[],"outputs":[{"name":"","type":"address","internalType":"address"}],"stateMutability":"view"},{"type":"function","name":"ownerServices","inputs":[{"name":"","type":"address","internalType":"address"},{"name":"","type":"uint256","internalType":"uint256"}],"outputs":[{"name":"","type":"uint256","internalType":"uint256"}],"stateMutability":"view"},{"type":"function","name":"rateService","inputs":[{"name":"id","type":"uint256","internalType":"uint256"},{"name":"score","type":"uint8","internalType":"uint8"},{"name":"evidenceURI","type":"string","internalType":"string"}],"outputs":[],"stateMutability":"nonpayable"},{"type":"function","name":"register","inputs":[{"name":"name","type":"string","internalType":"string"},{"name":"capabilitiesURI","type":"string","internalType":"string"},{"name":"pricePerCallWei","type":"uint256","internalType":"uint256"},{"name":"category","type":"uint8","internalType":"enum ServiceRegistry.Category"}],"outputs":[{"name":"id","type":"uint256","internalType":"uint256"}],"stateMutability":"payable"},{"type":"function","name":"renounceOwnership","inputs":[],"outputs":[],"stateMutability":"nonpayable"},{"type":"function","name":"serviceCount","inputs":[],"outputs":[{"name":"","type":"uint256","internalType":"uint256"}],"stateMutability":"view"},{"type":"function","name":"serviceRatings","inputs":[{"name":"","type":"uint256","internalType":"uint256"},{"name":"","type":"uint256","internalType":"uint256"}],"outputs":[{"name":"rater","type":"address","internalType":"address"},{"name":"serviceId","type":"uint256","internalType":"uint256"},{"name":"score","type":"uint8","internalType":"uint8"},{"name":"evidenceURI","type":"string","internalType":"string"},{"name":"timestamp","type":"uint256","internalType":"uint256"}],"stateMutability":"view"},{"type":"function","name":"services","inputs":[{"name":"","type":"uint256","internalType":"uint256"}],"outputs":[{"name":"owner","type":"address","internalType":"address"},{"name":"name","type":"string","internalType":"string"},{"name":"capabilitiesURI","type":"string","internalType":"string"},{"name":"pricePerCallWei","type":"uint256","internalType":"uint256"},{"name":"category","type":"uint8","internalType":"enum ServiceRegistry.Category"},{"name":"stakedETH","type":"uint256","internalType":"uint256"},{"name":"reputationScore","type":"uint256","internalType":"uint256"},{"name":"totalCalls","type":"uint256","internalType":"uint256"},{"name":"goodResponses","type":"uint256","internalType":"uint256"},{"name":"badResponses","type":"uint256","internalType":"uint256"},{"name":"registeredAt","type":"uint256","internalType":"uint256"},{"name":"active","type":"bool","internalType":"bool"},{"name":"slashed","type":"bool","internalType":"bool"}],"stateMutability":"view"},{"type":"function","name":"slashService","inputs":[{"name":"id","type":"uint256","internalType":"uint256"}],"outputs":[],"stateMutability":"nonpayable"},{"type":"function","name":"transferOwnership","inputs":[{"name":"newOwner","type":"address","internalType":"address"}],"outputs":[],"stateMutability":"nonpayable"},{"type":"function","name":"treasuryBalance","inputs":[],"outputs":[{"name":"","type":"uint256","internalType":"uint256"}],"stateMutability":"view"},{"type":"function","name":"updateCapabilities","inputs":[{"name":"id","type":"uint256","internalType":"uint256"},{"name":"capabilitiesURI","type":"string","internalType":"string"},{"name":"pricePerCallWei","type":"uint256","internalType":"uint256"}],"outputs":[],"stateMutability":"nonpayable"},{"type":"function","name":"withdrawAndExit","inputs":[{"name":"id","type":"uint256","internalType":"uint256"}],"outputs":[],"stateMutability":"nonpayable"},{"type":"function","name":"withdrawTreasury","inputs":[{"name":"to","type":"address","internalType":"address payable"}],"outputs":[],"stateMutability":"nonpayable"},{"type":"event","name":"OwnershipTransferred","inputs":[{"name":"previousOwner","type":"address","indexed":true,"internalType":"address"},{"name":"newOwner","type":"address","indexed":true,"internalType":"address"}],"anonymous":false},{"type":"event","name":"ServiceDeactivated","inputs":[{"name":"id","type":"uint256","indexed":true,"internalType":"uint256"}],"anonymous":false},{"type":"event","name":"ServiceRated","inputs":[{"name":"id","type":"uint256","indexed":true,"internalType":"uint256"},{"name":"rater","type":"address","indexed":true,"internalType":"address"},{"name":"score","type":"uint8","indexed":false,"internalType":"uint8"},{"name":"evidenceURI","type":"string","indexed":false,"internalType":"string"}],"anonymous":false},{"type":"event","name":"ServiceRegistered","inputs":[{"name":"id","type":"uint256","indexed":true,"internalType":"uint256"},{"name":"owner","type":"address","indexed":true,"internalType":"address"},{"name":"name","type":"string","indexed":false,"internalType":"string"},{"name":"category","type":"uint8","indexed":false,"internalType":"enum ServiceRegistry.Category"}],"anonymous":false},{"type":"event","name":"ServiceSlashed","inputs":[{"name":"id","type":"uint256","indexed":true,"internalType":"uint256"},{"name":"slashAmount","type":"uint256","indexed":false,"internalType":"uint256"}],"anonymous":false},{"type":"event","name":"ServiceUpdated","inputs":[{"name":"id","type":"uint256","indexed":true,"internalType":"uint256"},{"name":"capabilitiesURI","type":"string","indexed":false,"internalType":"string"},{"name":"pricePerCallWei","type":"uint256","indexed":false,"internalType":"uint256"}],"anonymous":false},{"type":"event","name":"StakeIncreased","inputs":[{"name":"id","type":"uint256","indexed":true,"internalType":"uint256"},{"name":"amount","type":"uint256","indexed":false,"internalType":"uint256"}],"anonymous":false},{"type":"event","name":"StakeWithdrawn","inputs":[{"name":"id","type":"uint256","indexed":true,"internalType":"uint256"},{"name":"amount","type":"uint256","indexed":false,"internalType":"uint256"}],"anonymous":false},{"type":"error","name":"CannotRateOwn","inputs":[]},{"type":"error","name":"InsufficientStake","inputs":[{"name":"provided","type":"uint256","internalType":"uint256"},{"name":"required","type":"uint256","internalType":"uint256"}]},{"type":"error","name":"InvalidScore","inputs":[]},{"type":"error","name":"NotFound","inputs":[]},{"type":"error","name":"NotServiceOwner","inputs":[]},{"type":"error","name":"OwnableInvalidOwner","inputs":[{"name":"owner","type":"address","internalType":"address"}]},{"type":"error","name":"OwnableUnauthorizedAccount","inputs":[{"name":"account","type":"address","internalType":"address"}]},{"type":"error","name":"RatingTooSoon","inputs":[{"name":"nextAllowed","type":"uint256","internalType":"uint256"}]},{"type":"error","name":"ReentrancyGuardReentrantCall","inputs":[]},{"type":"error","name":"ServiceNotActive","inputs":[]},{"type":"error","name":"ServiceSlashedError","inputs":[]}],"bytecode":{"object":"0x60803460dc57601f611c8138819003918201601f19168301916001600160401b0383118484101760e05780849260209460405283398101031260dc57516001600160a01b0381169081900360dc57801560c9575f80546001600160a01b031981168317825560405192916001600160a01b03909116907f8be0079c531659141344cd1fd0a4f28419497f9722a3daafe3b4186f6b6457e09080a360017f9b779b17422d0df92223018b32b4d1fa46e071723d6817e2486d003becc55f0055611b8c90816100f58239f35b631e4fbdf760e01b5f525f60045260245ffd5b5f80fd5b634e487b7160e01b5f52604160045260245ffdfe6080604052600436101561001a575b3615610018575f80fd5b005b5f3560e01c8063027fb2521461150057806306237526146114e35780630bd9000a1461135a5780632e3131ad1461133f578063313dab201461132257806333e66559146111e05780633db33d52146111c4578063480e9ffc1461113357806362788b44146110ef578063715018a614611098578063763d3f961461107d578063794dc9fe14610ff35780637a91f2f014610fb55780637e2160a014610bea5780638da5cb5b14610bc3578063933cd8de14610ba7578063c22c4f4314610aab578063c809232b14610a8f578063cb1c2b5c14610a6e578063cff0a65414610a52578063d18e250914610903578063e1610e9b146104f4578063eb4f16b514610480578063ef0e239b14610275578063f2fde38b146101f0578063f3d55cef146101985763f86c9e9a0361000e5734610194576020366003190112610194576004356001600160a01b03811690819003610194575f8080809361017a611a4b565b60065490826006555af161018c611898565b501561019457005b5f80fd5b34610194576040366003190112610194576101b1611845565b6001600160a01b03165f90815260046020526040902080546024359190821015610194576020916101e191611868565b90549060031b1c604051908152f35b3461019457602036600319011261019457610209611845565b610211611a4b565b6001600160a01b03168015610262575f80546001600160a01b03198116831782556001600160a01b0316907f8be0079c531659141344cd1fd0a4f28419497f9722a3daafe3b4186f6b6457e09080a3005b631e4fbdf760e01b5f525f60045260245ffd5b34610194576020366003190112610194576004355f61018060405161029981611744565b82815260606020820152606060408201528260608201528260808201528260a08201528260c08201528260e0820152826101008201528261012082015282610140820152826101608201520152600154811015610471575f52600260205260405f2060405161030781611744565b81546001600160a01b0316815261032060018301611781565b602082019081529161033460028201611781565b906040830191825260038101549160608401928352600482015460ff169160808501926103619084611a00565b600581015460a08601908152600682015460c08701908152600783015460e0880190815260088401549161010089019283526009850154936101208a01948552600a860154956101408b01968752600b0154976101608b019760ff8a16151589526101808c019960081c60ff1615158a526040519c8d809d60208252600160a01b6001900390511690602001525160408d016101a090526101c08d0161040691611821565b90518c8203601f190160608e015261041e9190611821565b995160808c01525160a08b016104339161185b565b5160c08a01525160e0890152516101008801525161012087015251610140860152516101608501525115156101808401525115156101a08301520390f35b63c5723b5160e01b5f5260045ffd5b60203660031901126101945760043561049881611a0c565b80546001600160a01b031633036104e5576005016104b73482546119b0565b90557f2ecf47034fd4e8c1df8bc104c913d064cb4cbc29c48aa1d62e5fa6747c0134796020604051348152a2005b63115e986f60e31b5f5260045ffd5b6080366003190112610194576004356001600160401b0381116101945761051f903690600401611664565b6024356001600160401b0381116101945761053e903690600401611664565b90916064359160068310156101945766038d7ea4c6800034106108e55760015480946105698261198e565b6001556105996040519161057c83611744565b33835261058a36878b6119ca565b946020840195865236916119ca565b90604081019182526060810191604435835260808201926105ba8885611a00565b60a0830134815260c08401611388815260e08501905f82526101008601925f84526101208701945f865261014088019642885261016089019b60018d526101808a019b5f8d525f52600260205260405f209960018060a01b039060018060a01b03905116166bffffffffffffffffffffffff60a01b8b5416178a5560018a0190518051906001600160401b0382116107ec576106608261065a85546116f1565b856118c7565b602090601f83116001146108825761068f92915f9183610814575b50508160011b915f199060031b1c19161790565b90555b51805160028a01916001600160401b0382116107ec576106b68261065a85546116f1565b602090601f831160011461081f576106e492915f91836108145750508160011b915f199060031b1c19161790565b90555b51600388015560048701975197600689101561080057600b9860ff8019835416911617905551600587015551600686015551600785015551600884015551600983015551600a820155019151151560ff8019845416911617825551151561ff0082549160081b169061ff001916179055335f52600460205260405f2093845491600160401b8310156107ec576107de6107d47f397ed5c5950f50dc1b12c93dd8160d07f386910a58b47c6e4e1f0c1ac8b27308936107ae8660209a60018b99018155611868565b81549060031b9088821b915f19901b191617905560405193604085526040850191611925565b948783019061185b565b8033940390a3604051908152f35b634e487b7160e01b5f52604160045260245ffd5b634e487b7160e01b5f52602160045260245ffd5b015190505f8061067b565b90601f19831691845f52815f20925f5b81811061086a5750908460019594939210610852575b505050811b0190556106e7565b01515f1960f88460031b161c191690555f8080610845565b9293602060018192878601518155019501930161082f565b90601f19831691845f52815f20925f5b8181106108cd57509084600195949392106108b5575b505050811b019055610692565b01515f1960f88460031b161c191690555f80806108a8565b92936020600181928786015181550195019301610892565b6322df051360e11b5f523460045266038d7ea4c6800060245260445ffd5b34610194576020366003190112610194576004355f52600360205260405f2080549061092e82611945565b9161093c6040519384611760565b8083526020830180925f5260205f205f915b8383106109f657848660405191829160208301906020845251809152604083019060408160051b85010192915f905b82821061098c57505050500390f35b919360019193955060208091603f19898203018552875190848060a01b038251168152828201518382015260ff60408301511660408201526080806109e0606085015160a0606086015260a0850190611821565b930151910152960192019201859493919261097d565b60056020600192604051610a0981611729565b848060a01b038654168152848601548382015260ff6002870154166040820152610a3560038701611781565b60608201526004860154608082015281520192019201919061094e565b34610194575f3660031901126101945760206040516113888152f35b34610194575f36600319011261019457602060405166038d7ea4c680008152f35b34610194575f3660031901126101945760206040516127108152f35b34610194576020366003190112610194576004355f90815260026020526040902080546001600160a01b0316610ae360018301611781565b91610af060028201611781565b600382015491600481015460ff1660058201546006830154600784015490600885015492600986015494600a87015496600b0154976040519b8c9b8c5260208c016101a090526101a08c01610b4491611821565b8b810360408d0152610b5591611821565b9860608b015260808a01610b689161185b565b60a089015260c088015260e087015261010086015261012085015261014084015260ff8116151561016084015260081c60ff1615156101808301520390f35b34610194575f3660031901126101945760206040516107d08152f35b34610194575f366003190112610194575f546040516001600160a01b039091168152602090f35b34610194576060366003190112610194576004356024359060ff8216809203610194576044356001600160401b03811161019457610c2c903690600401611664565b929081158015610fab575b610f9c57825f52600260205260405f2060ff600b8201541615610f8d5780546001600160a01b03163314610f7e57335f52600560205260405f20845f5260205260405f205480610f57575b50335f52600560205260405f20845f526020524260405f2055835f52600360205260405f2060405190610cb482611729565b3382526020820186815260408301868152610cd0368a886119ca565b916060850192835260808501934285528054600160401b8110156107ec57610cfd916001820181556116c4565b959095610f44575185546001600160a01b0319166001600160a01b03919091161785555160018501555160028401805460ff191660ff9290921691909117905551805160038401916001600160401b0382116107ec57610d618261065a85546116f1565b602090601f8311600114610edd579180610d949260049695945f92610ed25750508160011b915f199060031b1c19161790565b90555b5191015560078101610da9815461198e565b905560048310610e345780600860069201610dc4815461198e565b9055019182549260648401809411610e20575f516020611b375f395f51905f5293612710811015610e1657905b555b610e1160405192839283526040602084015233966040840191611925565b0390a3005b5061271090610df1565b634e487b7160e01b5f52601160045260245ffd5b916002811115610e54575b5f516020611b375f395f51905f529250610df3565b6009830192610e63845461198e565b80945560068101938454906101f482115f14610eb8576101f3198201918211610e20575f516020611b375f395f51905f5295600a92905b550615610ea8575b50610e3f565b610eb29085611a71565b85610ea2565b600a91505f516020611b375f395f51905f52955f90610e9a565b015190508c8061067b565b90601f19831691845f52815f20925f5b818110610f2c575091600193918560049897969410610f14575b505050811b019055610d97565b01515f1960f88460031b161c191690558b8080610f07565b92936020600181928786015181550195019301610eed565b634e487b7160e01b5f525f60045260245ffd5b620151808101809111610e205780421015610c825763579b090160e11b5f5260045260245ffd5b63518f11b560e11b5f5260045ffd5b63090f768960e01b5f5260045ffd5b631556136560e01b5f5260045ffd5b5060058211610c37565b3461019457602036600319011261019457600435610fd1611a4b565b805f52600260205260405f2060ff600b8201541615610f8d5761001891611a71565b34610194576020366003190112610194576001600160a01b03611014611845565b165f52600460205260405f206040519081602082549182815201915f5260205f20905f5b818110611067576110638561104f81870382611760565b604051918291602083526020830190611691565b0390f35b8254845260209093019260019283019201611038565b34610194575f366003190112610194576020604051600a8152f35b34610194575f366003190112610194576110b0611a4b565b5f80546001600160a01b0319811682556001600160a01b03167f8be0079c531659141344cd1fd0a4f28419497f9722a3daafe3b4186f6b6457e08280a3005b34610194576040366003190112610194576001600160a01b03611110611845565b165f52600560205260405f206024355f52602052602060405f2054604051908152f35b34610194576040366003190112610194576024356004355f52600360205260405f2090815481101561019457611168916116c4565b5060018060a01b038154166001820154916111ba60ff60028301541691600461119360038301611781565b9101549260405195869586526020860152604085015260a0606085015260a0840190611821565b9060808301520390f35b34610194575f3660031901126101945760206040516101f48152f35b346101945760603660031901126101945760043560068110159081610194576024359060015461120f8161195c565b935f925f5b8381106112b3575050505061122b604435836119b0565b818110156112ac575b828111156112a35761124e61124984836119bd565b61195c565b92805b82811061127b576112718585604051928392604084526040840190611691565b9060208301520390f35b806112886001928861199c565b5161129c61129685846119bd565b8861199c565b5201611251565b61124e5f61195c565b5080611234565b8083915f52600260205260ff600b60405f20015416806112f7575b600192506112dd575b01611214565b806112f16112ea8861198e565b978a61199c565b526112d7565b50805f52600260205260ff600460405f200154169161080057600682101561080057839183146112ce565b34610194575f366003190112610194576020600654604051908152f35b34610194575f36600319011261019457602060405160648152f35b34610194576060366003190112610194576004356024356001600160401b0381116101945761138d903690600401611664565b91906044359261139c83611a0c565b80549094906001600160a01b031633036104e55760028501946001600160401b0383116107ec576113d7836113d188546116f1565b886118c7565b5f95601f841160011461145d57829160039161142b86807fae55ce3c351e2400a1a143e7ed66668e581e1656ad1797a317e415d0358809169a9b5f91611452575b508160011b915f199060031b1c19161790565b90555b0155611447604051938493604085526040850191611925565b9060208301520390a2005b90508901358c611418565b601f198416815f5260205f20905f5b8181106114cb5750918493917fae55ce3c351e2400a1a143e7ed66668e581e1656ad1797a317e415d035880916989987600395106114b4575b5050600186811b01905561142e565b8801355f1988861b60f8161c1916905589806114a5565b878a013583556020998a01996001909301920161146c565b34610194575f366003190112610194576020600154604051908152f35b346101945760203660031901126101945760043560027f9b779b17422d0df92223018b32b4d1fa46e071723d6817e2486d003becc55f0054146116555760027f9b779b17422d0df92223018b32b4d1fa46e071723d6817e2486d003becc55f0055805f52600260205260405f2060018060a01b0381541633036104e557600b60058201915f835493550160ff1981541690555f80808084335af16115a2611898565b501561161e5760207f3db0ca701d7c1106534c6003e5d65dae65a9cb891ad5bbb9be39c091df79d87e9160405190847fd03940fb17cb0a1a204f69aebcdc5eb179c0d0c61f1d1a75872054468d7aa6655f80a28152a260017f9b779b17422d0df92223018b32b4d1fa46e071723d6817e2486d003becc55f0055005b60405162461bcd60e51b815260206004820152600f60248201526e1d1c985b9cd9995c8819985a5b1959608a1b6044820152606490fd5b633ee5aeb560e01b5f5260045ffd5b9181601f84011215610194578235916001600160401b038311610194576020838186019501011161019457565b90602080835192838152019201905f5b8181106116ae5750505090565b82518452602093840193909201916001016116a1565b80548210156116dd575f52600560205f20910201905f90565b634e487b7160e01b5f52603260045260245ffd5b90600182811c9216801561171f575b602083101461170b57565b634e487b7160e01b5f52602260045260245ffd5b91607f1691611700565b60a081019081106001600160401b038211176107ec57604052565b6101a081019081106001600160401b038211176107ec57604052565b90601f801991011681019081106001600160401b038211176107ec57604052565b9060405191825f825492611794846116f1565b80845293600181169081156117ff57506001146117bb575b506117b992500383611760565b565b90505f9291925260205f20905f915b8183106117e35750509060206117b9928201015f6117ac565b60209193508060019154838589010152019101909184926117ca565b9050602092506117b994915060ff191682840152151560051b8201015f6117ac565b805180835260209291819084018484015e5f828201840152601f01601f1916010190565b600435906001600160a01b038216820361019457565b9060068210156108005752565b80548210156116dd575f5260205f2001905f90565b6001600160401b0381116107ec57601f01601f191660200190565b3d156118c2573d906118a98261187d565b916118b76040519384611760565b82523d5f602084013e565b606090565b919091601f83116118d8575b505050565b8183116118e457505050565b5f5260205f206020601f830160051c921061191d575b81601f9101920160051c03905f5b828110156118d3575f82820155600101611908565b5f91506118fa565b908060209392818452848401375f828201840152601f01601f1916010190565b6001600160401b0381116107ec5760051b60200190565b9061196682611945565b6119736040519182611760565b8281528092611984601f1991611945565b0190602036910137565b5f198114610e205760010190565b80518210156116dd5760209160051b010190565b91908201809211610e2057565b91908203918211610e2057565b9291926119d68261187d565b916119e46040519384611760565b829481845281830111610194578281602093845f960137010152565b60068210156108005752565b600154811015610471575f52600260205260405f2090600b82015460ff811615610f8d5760081c60ff16611a3c57565b630c339eed60e21b5f5260045ffd5b5f546001600160a01b03163303611a5e57565b63118cdaa760e01b5f523360045260245ffd5b90600581019081546107d08102928184046107d01482151715610e2057600b602093611ac36127107fc0bbbbb9235727bc9d37a913761ba2d30c583aaa91c6ed917137ac9bd6a570a3970480956119bd565b8355611ad1846006546119b0565b600655019066038d7ea4c6800082549161010061ff001984161784555410611aff575b5050604051908152a2565b61ffff1916610100179055837fd03940fb17cb0a1a204f69aebcdc5eb179c0d0c61f1d1a75872054468d7aa6655f80a25f80611af456fe2325c0d2edfdef8f320e063f7ea01f3229283f13ee917cedf3361581d997f285a2646970667358221220b7dcd27300095ca3a3e28cb1426c91e86933c40b87692ebf43d90e46475df47464736f6c63430008210033","linkReferences":{}},"methodIdentifiers":{"BAD_RESPONSE_THRESHOLD()":"763d3f96","MIN_STAKE()":"cb1c2b5c","REPUTATION_BAD()":"3db33d52","REPUTATION_GOOD()":"2e3131ad","REPUTATION_MAX()":"c809232b","REPUTATION_START()":"cff0a654","SLASH_BPS()":"933cd8de","addStake(uint256)":"eb4f16b5","getOwnerServices(address)":"794dc9fe","getRatings(uint256)":"d18e2509","getService(uint256)":"ef0e239b","getServicesByCategory(uint8,uint256,uint256)":"33e66559","lastRatingTime(address,uint256)":"62788b44","owner()":"8da5cb5b","ownerServices(address,uint256)":"f3d55cef","rateService(uint256,uint8,string)":"7e2160a0","register(string,string,uint256,uint8)":"e1610e9b","renounceOwnership()":"715018a6","serviceCount()":"06237526","serviceRatings(uint256,uint256)":"480e9ffc","services(uint256)":"c22c4f43","slashService(uint256)":"7a91f2f0","transferOwnership(address)":"f2fde38b","treasuryBalance()":"313dab20","updateCapabilities(uint256,string,uint256)":"0bd9000a","withdrawAndExit(uint256)":"027fb252","withdrawTreasury(address)":"f86c9e9a"},"id":29}