{"abi":[{"type":"constructor","inputs":[{"name":"owner_","type":"address","internalType":"address"}],"stateMutability":"nonpayable"},{"type":"receive","stateMutability":"payable"},{"type":"function","name":"BAD_RESPONSE_THRESHOLD","inputs":[],"outputs":[{"name":"","type":"uint256","internalType":"uint256"}],"stateMutability":"view"},{"type":"function","name":"MAX_PROTOCOL_FEE_BPS","inputs":[],"outputs":[{"name":"","type":"uint256","internalType":"uint256"}],"stateMutability":"view"},{"type":"function","name":"MIN_STAKE","inputs":[],"outputs":[{"name":"","type":"uint256","internalType":"uint256"}],"stateMutability":"view"},{"type":"function","name":"REGISTRATION_FEE_BPS","inputs":[],"outputs":[{"name":"","type":"uint256","internalType":"uint256"}],"stateMutability":"view"},{"type":"function","name":"REPUTATION_BAD","inputs":[],"outputs":[{"name":"","type":"uint256","internalType":"uint256"}],"stateMutability":"view"},{"type":"function","name":"REPUTATION_GOOD","inputs":[],"outputs":[{"name":"","type":"uint256","internalType":"uint256"}],"stateMutability":"view"},{"type":"function","name":"REPUTATION_MAX","inputs":[],"outputs":[{"name":"","type":"uint256","internalType":"uint256"}],"stateMutability":"view"},{"type":"function","name":"REPUTATION_START","inputs":[],"outputs":[{"name":"","type":"uint256","internalType":"uint256"}],"stateMutability":"view"},{"type":"function","name":"SLASH_BPS","inputs":[],"outputs":[{"name":"","type":"uint256","internalType":"uint256"}],"stateMutability":"view"},{"type":"function","name":"addStake","inputs":[{"name":"id","type":"uint256","internalType":"uint256"}],"outputs":[],"stateMutability":"payable"},{"type":"function","name":"getOwnerServices","inputs":[{"name":"owner","type":"address","internalType":"address"}],"outputs":[{"name":"","type":"uint256[]","internalType":"uint256[]"}],"stateMutability":"view"},{"type":"function","name":"getRatings","inputs":[{"name":"id","type":"uint256","internalType":"uint256"}],"outputs":[{"name":"","type":"tuple[]","internalType":"struct ServiceRegistry.Rating[]","components":[{"name":"rater","type":"address","internalType":"address"},{"name":"serviceId","type":"uint256","internalType":"uint256"},{"name":"score","type":"uint8","internalType":"uint8"},{"name":"evidenceURI","type":"string","internalType":"string"},{"name":"timestamp","type":"uint256","internalType":"uint256"}]}],"stateMutability":"view"},{"type":"function","name":"getService","inputs":[{"name":"id","type":"uint256","internalType":"uint256"}],"outputs":[{"name":"","type":"tuple","internalType":"struct ServiceRegistry.Service","components":[{"name":"owner","type":"address","internalType":"address"},{"name":"name","type":"string","internalType":"string"},{"name":"capabilitiesURI","type":"string","internalType":"string"},{"name":"pricePerCallWei","type":"uint256","internalType":"uint256"},{"name":"category","type":"uint8","internalType":"enum ServiceRegistry.Category"},{"name":"stakedETH","type":"uint256","internalType":"uint256"},{"name":"reputationScore","type":"uint256","internalType":"uint256"},{"name":"totalCalls","type":"uint256","internalType":"uint256"},{"name":"goodResponses","type":"uint256","internalType":"uint256"},{"name":"badResponses","type":"uint256","internalType":"uint256"},{"name":"registeredAt","type":"uint256","internalType":"uint256"},{"name":"active","type":"bool","internalType":"bool"},{"name":"slashed","type":"bool","internalType":"bool"}]}],"stateMutability":"view"},{"type":"function","name":"getServicesByCategory","inputs":[{"name":"category","type":"uint8","internalType":"enum ServiceRegistry.Category"},{"name":"offset","type":"uint256","internalType":"uint256"},{"name":"limit","type":"uint256","internalType":"uint256"}],"outputs":[{"name":"ids","type":"uint256[]","internalType":"uint256[]"},{"name":"total","type":"uint256","internalType":"uint256"}],"stateMutability":"view"},{"type":"function","name":"lastRatingTime","inputs":[{"name":"","type":"address","internalType":"address"},{"name":"","type":"uint256","internalType":"uint256"}],"outputs":[{"name":"","type":"uint256","internalType":"uint256"}],"stateMutability":"view"},{"type":"function","name":"owner","inputs":[],"outputs":[{"name":"","type":"address","internalType":"address"}],"stateMutability":"view"},{"type":"function","name":"ownerServices","inputs":[{"name":"","type":"address","internalType":"address"},{"name":"","type":"uint256","internalType":"uint256"}],"outputs":[{"name":"","type":"uint256","internalType":"uint256"}],"stateMutability":"view"},{"type":"function","name":"rateService","inputs":[{"name":"id","type":"uint256","internalType":"uint256"},{"name":"score","type":"uint8","internalType":"uint8"},{"name":"evidenceURI","type":"string","internalType":"string"}],"outputs":[],"stateMutability":"nonpayable"},{"type":"function","name":"register","inputs":[{"name":"name","type":"string","internalType":"string"},{"name":"capabilitiesURI","type":"string","internalType":"string"},{"name":"pricePerCallWei","type":"uint256","internalType":"uint256"},{"name":"category","type":"uint8","internalType":"enum ServiceRegistry.Category"}],"outputs":[{"name":"id","type":"uint256","internalType":"uint256"}],"stateMutability":"payable"},{"type":"function","name":"renounceOwnership","inputs":[],"outputs":[],"stateMutability":"nonpayable"},{"type":"function","name":"serviceCount","inputs":[],"outputs":[{"name":"","type":"uint256","internalType":"uint256"}],"stateMutability":"view"},{"type":"function","name":"serviceRatings","inputs":[{"name":"","type":"uint256","internalType":"uint256"},{"name":"","type":"uint256","internalType":"uint256"}],"outputs":[{"name":"rater","type":"address","internalType":"address"},{"name":"serviceId","type":"uint256","internalType":"uint256"},{"name":"score","type":"uint8","internalType":"uint8"},{"name":"evidenceURI","type":"string","internalType":"string"},{"name":"timestamp","type":"uint256","internalType":"uint256"}],"stateMutability":"view"},{"type":"function","name":"services","inputs":[{"name":"","type":"uint256","internalType":"uint256"}],"outputs":[{"name":"owner","type":"address","internalType":"address"},{"name":"name","type":"string","internalType":"string"},{"name":"capabilitiesURI","type":"string","internalType":"string"},{"name":"pricePerCallWei","type":"uint256","internalType":"uint256"},{"name":"category","type":"uint8","internalType":"enum ServiceRegistry.Category"},{"name":"stakedETH","type":"uint256","internalType":"uint256"},{"name":"reputationScore","type":"uint256","internalType":"uint256"},{"name":"totalCalls","type":"uint256","internalType":"uint256"},{"name":"goodResponses","type":"uint256","internalType":"uint256"},{"name":"badResponses","type":"uint256","internalType":"uint256"},{"name":"registeredAt","type":"uint256","internalType":"uint256"},{"name":"active","type":"bool","internalType":"bool"},{"name":"slashed","type":"bool","internalType":"bool"}],"stateMutability":"view"},{"type":"function","name":"slashService","inputs":[{"name":"id","type":"uint256","internalType":"uint256"}],"outputs":[],"stateMutability":"nonpayable"},{"type":"function","name":"transferOwnership","inputs":[{"name":"newOwner","type":"address","internalType":"address"}],"outputs":[],"stateMutability":"nonpayable"},{"type":"function","name":"treasuryBalance","inputs":[],"outputs":[{"name":"","type":"uint256","internalType":"uint256"}],"stateMutability":"view"},{"type":"function","name":"updateCapabilities","inputs":[{"name":"id","type":"uint256","internalType":"uint256"},{"name":"capabilitiesURI","type":"string","internalType":"string"},{"name":"pricePerCallWei","type":"uint256","internalType":"uint256"}],"outputs":[],"stateMutability":"nonpayable"},{"type":"function","name":"withdrawAndExit","inputs":[{"name":"id","type":"uint256","internalType":"uint256"}],"outputs":[],"stateMutability":"nonpayable"},{"type":"function","name":"withdrawTreasury","inputs":[{"name":"to","type":"address","internalType":"address payable"}],"outputs":[],"stateMutability":"nonpayable"},{"type":"event","name":"OwnershipTransferred","inputs":[{"name":"previousOwner","type":"address","indexed":true,"internalType":"address"},{"name":"newOwner","type":"address","indexed":true,"internalType":"address"}],"anonymous":false},{"type":"event","name":"ServiceDeactivated","inputs":[{"name":"id","type":"uint256","indexed":true,"internalType":"uint256"}],"anonymous":false},{"type":"event","name":"ServiceRated","inputs":[{"name":"id","type":"uint256","indexed":true,"internalType":"uint256"},{"name":"rater","type":"address","indexed":true,"internalType":"address"},{"name":"score","type":"uint8","indexed":false,"internalType":"uint8"},{"name":"evidenceURI","type":"string","indexed":false,"internalType":"string"}],"anonymous":false},{"type":"event","name":"ServiceRegistered","inputs":[{"name":"id","type":"uint256","indexed":true,"internalType":"uint256"},{"name":"owner","type":"address","indexed":true,"internalType":"address"},{"name":"name","type":"string","indexed":false,"internalType":"string"},{"name":"category","type":"uint8","indexed":false,"internalType":"enum ServiceRegistry.Category"}],"anonymous":false},{"type":"event","name":"ServiceSlashed","inputs":[{"name":"id","type":"uint256","indexed":true,"internalType":"uint256"},{"name":"slashAmount","type":"uint256","indexed":false,"internalType":"uint256"}],"anonymous":false},{"type":"event","name":"ServiceUpdated","inputs":[{"name":"id","type":"uint256","indexed":true,"internalType":"uint256"},{"name":"capabilitiesURI","type":"string","indexed":false,"internalType":"string"},{"name":"pricePerCallWei","type":"uint256","indexed":false,"internalType":"uint256"}],"anonymous":false},{"type":"event","name":"StakeIncreased","inputs":[{"name":"id","type":"uint256","indexed":true,"internalType":"uint256"},{"name":"amount","type":"uint256","indexed":false,"internalType":"uint256"}],"anonymous":false},{"type":"event","name":"StakeWithdrawn","inputs":[{"name":"id","type":"uint256","indexed":true,"internalType":"uint256"},{"name":"amount","type":"uint256","indexed":false,"internalType":"uint256"}],"anonymous":false},{"type":"error","name":"CannotRateOwn","inputs":[]},{"type":"error","name":"InsufficientStake","inputs":[{"name":"provided","type":"uint256","internalType":"uint256"},{"name":"required","type":"uint256","internalType":"uint256"}]},{"type":"error","name":"InvalidScore","inputs":[]},{"type":"error","name":"NotFound","inputs":[]},{"type":"error","name":"NotServiceOwner","inputs":[]},{"type":"error","name":"OwnableInvalidOwner","inputs":[{"name":"owner","type":"address","internalType":"address"}]},{"type":"error","name":"OwnableUnauthorizedAccount","inputs":[{"name":"account","type":"address","internalType":"address"}]},{"type":"error","name":"RatingTooSoon","inputs":[{"name":"nextAllowed","type":"uint256","internalType":"uint256"}]},{"type":"error","name":"ReentrancyGuardReentrantCall","inputs":[]},{"type":"error","name":"ServiceNotActive","inputs":[]},{"type":"error","name":"ServiceSlashedError","inputs":[]}],"bytecode":{"object":"0x60803460dc57601f611cea38819003918201601f19168301916001600160401b0383118484101760e05780849260209460405283398101031260dc57516001600160a01b0381169081900360dc57801560c9575f80546001600160a01b031981168317825560405192916001600160a01b03909116907f8be0079c531659141344cd1fd0a4f28419497f9722a3daafe3b4186f6b6457e09080a360017f9b779b17422d0df92223018b32b4d1fa46e071723d6817e2486d003becc55f0055611bf590816100f58239f35b631e4fbdf760e01b5f525f60045260245ffd5b5f80fd5b634e487b7160e01b5f52604160045260245ffdfe6080604052600436101561001a575b3615610018575f80fd5b005b5f3560e01c8063027fb2521461154d57806306237526146115305780630bd9000a146113a75780632e3131ad1461138c578063313dab201461136f57806333e665591461122d5780633db33d5214610c03578063480e9ffc1461119c57806362788b44146111585780636d947e4b1461113c578063715018a6146110e5578063763d3f96146110ca578063794dc9fe146110405780637a91f2f0146110025780637e2160a014610c4b5780638da5cb5b14610c24578063933cd8de14610c08578063b59c599c14610c03578063c22c4f4314610b07578063c809232b14610aeb578063cb1c2b5c14610aca578063cff0a65414610aae578063d18e25091461095f578063e1610e9b1461050a578063eb4f16b514610496578063ef0e239b1461028b578063f2fde38b14610206578063f3d55cef146101ae5763f86c9e9a0361000e57346101aa5760203660031901126101aa576004356001600160a01b038116908190036101aa575f80808093610190611ab4565b60065490826006555af16101a2611901565b50156101aa57005b5f80fd5b346101aa5760403660031901126101aa576101c76118ae565b6001600160a01b03165f908152600460205260409020805460243591908210156101aa576020916101f7916118d1565b90549060031b1c604051908152f35b346101aa5760203660031901126101aa5761021f6118ae565b610227611ab4565b6001600160a01b03168015610278575f80546001600160a01b03198116831782556001600160a01b0316907f8be0079c531659141344cd1fd0a4f28419497f9722a3daafe3b4186f6b6457e09080a3005b631e4fbdf760e01b5f525f60045260245ffd5b346101aa5760203660031901126101aa576004355f6101806040516102af816117ad565b82815260606020820152606060408201528260608201528260808201528260a08201528260c08201528260e0820152826101008201528261012082015282610140820152826101608201520152600154811015610487575f52600260205260405f2060405161031d816117ad565b81546001600160a01b03168152610336600183016117ea565b602082019081529161034a600282016117ea565b906040830191825260038101549160608401928352600482015460ff169160808501926103779084611a69565b600581015460a08601908152600682015460c08701908152600783015460e0880190815260088401549161010089019283526009850154936101208a01948552600a860154956101408b01968752600b0154976101608b019760ff8a16151589526101808c019960081c60ff1615158a526040519c8d809d60208252600160a01b6001900390511690602001525160408d016101a090526101c08d0161041c9161188a565b90518c8203601f190160608e0152610434919061188a565b995160808c01525160a08b01610449916118c4565b5160c08a01525160e0890152516101008801525161012087015251610140860152516101608501525115156101808401525115156101a08301520390f35b63c5723b5160e01b5f5260045ffd5b60203660031901126101aa576004356104ae81611a75565b80546001600160a01b031633036104fb576005016104cd348254611a19565b90557f2ecf47034fd4e8c1df8bc104c913d064cb4cbc29c48aa1d62e5fa6747c0134796020604051348152a2005b63115e986f60e31b5f5260045ffd5b60803660031901126101aa576004356001600160401b0381116101aa576105359036906004016116b1565b6024356001600160401b0381116101aa576105549036906004016116b1565b90916064359160068310156101aa5766038d7ea4c680003410610941576101f434023481046101f4143415171561092d576127109004936105a16105988634611a26565b95600654611a19565b6006556001549485916105b3836119f7565b6001556105e3604051916105c6836117ad565b3383526105d436888c611a33565b95602084019687523691611a33565b6040820190815260608201604435815260808301936106028986611a69565b60a0840190815260c08401611388815260e08501905f82526101008601925f84526101208701945f865261014088019642885261016089019b60018d526101808a019b5f8d525f52600260205260405f209960018060a01b039060018060a01b03905116166bffffffffffffffffffffffff60a01b8b5416178a5560018a0190518051906001600160401b038211610834576106a8826106a2855461175a565b85611930565b602090601f83116001146108ca576106d792915f918361085c575b50508160011b915f199060031b1c19161790565b90555b51805160028a01916001600160401b038211610834576106fe826106a2855461175a565b602090601f83116001146108675761072c92915f918361085c5750508160011b915f199060031b1c19161790565b90555b51600388015560048701975197600689101561084857600b9860ff8019835416911617905551600587015551600686015551600785015551600884015551600983015551600a820155019151151560ff8019845416911617825551151561ff0082549160081b169061ff001916179055335f52600460205260405f2093845491600160401b8310156108345761082661081c7f397ed5c5950f50dc1b12c93dd8160d07f386910a58b47c6e4e1f0c1ac8b27308936107f68660209a60018b990181556118d1565b81549060031b9088821b915f19901b19161790556040519360408552604085019161198e565b94878301906118c4565b8033940390a3604051908152f35b634e487b7160e01b5f52604160045260245ffd5b634e487b7160e01b5f52602160045260245ffd5b015190505f806106c3565b90601f19831691845f52815f20925f5b8181106108b2575090846001959493921061089a575b505050811b01905561072f565b01515f1960f88460031b161c191690555f808061088d565b92936020600181928786015181550195019301610877565b90601f19831691845f52815f20925f5b81811061091557509084600195949392106108fd575b505050811b0190556106da565b01515f1960f88460031b161c191690555f80806108f0565b929360206001819287860151815501950193016108da565b634e487b7160e01b5f52601160045260245ffd5b6322df051360e11b5f523460045266038d7ea4c6800060245260445ffd5b346101aa5760203660031901126101aa576004355f52600360205260405f2080549061098a826119ae565b9161099860405193846117c9565b8083526020830180925f5260205f205f915b838310610a5257848660405191829160208301906020845251809152604083019060408160051b85010192915f905b8282106109e857505050500390f35b919360019193955060208091603f19898203018552875190848060a01b038251168152828201518382015260ff6040830151166040820152608080610a3c606085015160a0606086015260a085019061188a565b93015191015296019201920185949391926109d9565b60056020600192604051610a6581611792565b848060a01b038654168152848601548382015260ff6002870154166040820152610a91600387016117ea565b6060820152600486015460808201528152019201920191906109aa565b346101aa575f3660031901126101aa5760206040516113888152f35b346101aa575f3660031901126101aa57602060405166038d7ea4c680008152f35b346101aa575f3660031901126101aa5760206040516127108152f35b346101aa5760203660031901126101aa576004355f90815260026020526040902080546001600160a01b0316610b3f600183016117ea565b91610b4c600282016117ea565b600382015491600481015460ff1660058201546006830154600784015490600885015492600986015494600a87015496600b0154976040519b8c9b8c5260208c016101a090526101a08c01610ba09161188a565b8b810360408d0152610bb19161188a565b9860608b015260808a01610bc4916118c4565b60a089015260c088015260e087015261010086015261012085015261014084015260ff8116151561016084015260081c60ff1615156101808301520390f35b611711565b346101aa575f3660031901126101aa5760206040516107d08152f35b346101aa575f3660031901126101aa575f546040516001600160a01b039091168152602090f35b346101aa5760603660031901126101aa576004356024359060ff82168092036101aa576044356001600160401b0381116101aa57610c8d9036906004016116b1565b929081158015610ff8575b610fe957825f52600260205260405f2060ff600b8201541615610fda5780546001600160a01b03163314610fcb57335f52600560205260405f20845f5260205260405f205480610fa4575b50335f52600560205260405f20845f526020524260405f2055835f52600360205260405f2060405190610d1582611792565b3382526020820186815260408301868152610d31368a88611a33565b916060850192835260808501934285528054600160401b81101561083457610d5e9160018201815561172d565b959095610f91575185546001600160a01b0319166001600160a01b03919091161785555160018501555160028401805460ff191660ff9290921691909117905551805160038401916001600160401b03821161083457610dc2826106a2855461175a565b602090601f8311600114610f2a579180610df59260049695945f92610f1f5750508160011b915f199060031b1c19161790565b90555b5191015560078101610e0a81546119f7565b905560048310610e815780600860069201610e2581546119f7565b905501918254926064840180941161092d575f516020611ba05f395f51905f5293612710811015610e7757905b555b610e726040519283928352604060208401523396604084019161198e565b0390a3005b5061271090610e52565b916002811115610ea1575b5f516020611ba05f395f51905f529250610e54565b6009830192610eb084546119f7565b80945560068101938454906101f482115f14610f05576101f319820191821161092d575f516020611ba05f395f51905f5295600a92905b550615610ef5575b50610e8c565b610eff9085611ada565b85610eef565b600a91505f516020611ba05f395f51905f52955f90610ee7565b015190508c806106c3565b90601f19831691845f52815f20925f5b818110610f79575091600193918560049897969410610f61575b505050811b019055610df8565b01515f1960f88460031b161c191690558b8080610f54565b92936020600181928786015181550195019301610f3a565b634e487b7160e01b5f525f60045260245ffd5b62015180810180911161092d5780421015610ce35763579b090160e11b5f5260045260245ffd5b63518f11b560e11b5f5260045ffd5b63090f768960e01b5f5260045ffd5b631556136560e01b5f5260045ffd5b5060058211610c98565b346101aa5760203660031901126101aa5760043561101e611ab4565b805f52600260205260405f2060ff600b8201541615610fda5761001891611ada565b346101aa5760203660031901126101aa576001600160a01b036110616118ae565b165f52600460205260405f206040519081602082549182815201915f5260205f20905f5b8181106110b4576110b08561109c818703826117c9565b6040519182916020835260208301906116de565b0390f35b8254845260209093019260019283019201611085565b346101aa575f3660031901126101aa576020604051600a8152f35b346101aa575f3660031901126101aa576110fd611ab4565b5f80546001600160a01b0319811682556001600160a01b03167f8be0079c531659141344cd1fd0a4f28419497f9722a3daafe3b4186f6b6457e08280a3005b346101aa575f3660031901126101aa5760206040516103e88152f35b346101aa5760403660031901126101aa576001600160a01b036111796118ae565b165f52600560205260405f206024355f52602052602060405f2054604051908152f35b346101aa5760403660031901126101aa576024356004355f52600360205260405f209081548110156101aa576111d19161172d565b5060018060a01b0381541660018201549161122360ff6002830154169160046111fc600383016117ea565b9101549260405195869586526020860152604085015260a0606085015260a084019061188a565b9060808301520390f35b346101aa5760603660031901126101aa57600435600681101590816101aa576024359060015461125c816119c5565b935f925f5b838110611300575050505061127860443583611a19565b818110156112f9575b828111156112f05761129b6112968483611a26565b6119c5565b92805b8281106112c8576112be85856040519283926040845260408401906116de565b9060208301520390f35b806112d560019288611a05565b516112e96112e38584611a26565b88611a05565b520161129e565b61129b5f6119c5565b5080611281565b8083915f52600260205260ff600b60405f2001541680611344575b6001925061132a575b01611261565b8061133e611337886119f7565b978a611a05565b52611324565b50805f52600260205260ff600460405f2001541691610848576006821015610848578391831461131b565b346101aa575f3660031901126101aa576020600654604051908152f35b346101aa575f3660031901126101aa57602060405160648152f35b346101aa5760603660031901126101aa576004356024356001600160401b0381116101aa576113da9036906004016116b1565b9190604435926113e983611a75565b80549094906001600160a01b031633036104fb5760028501946001600160401b038311610834576114248361141e885461175a565b88611930565b5f95601f84116001146114aa57829160039161147886807fae55ce3c351e2400a1a143e7ed66668e581e1656ad1797a317e415d0358809169a9b5f9161149f575b508160011b915f199060031b1c19161790565b90555b015561149460405193849360408552604085019161198e565b9060208301520390a2005b90508901358c611465565b601f198416815f5260205f20905f5b8181106115185750918493917fae55ce3c351e2400a1a143e7ed66668e581e1656ad1797a317e415d03588091698998760039510611501575b5050600186811b01905561147b565b8801355f1988861b60f8161c1916905589806114f2565b878a013583556020998a0199600190930192016114b9565b346101aa575f3660031901126101aa576020600154604051908152f35b346101aa5760203660031901126101aa5760043560027f9b779b17422d0df92223018b32b4d1fa46e071723d6817e2486d003becc55f0054146116a25760027f9b779b17422d0df92223018b32b4d1fa46e071723d6817e2486d003becc55f0055805f52600260205260405f2060018060a01b0381541633036104fb57600b60058201915f835493550160ff1981541690555f80808084335af16115ef611901565b501561166b5760207f3db0ca701d7c1106534c6003e5d65dae65a9cb891ad5bbb9be39c091df79d87e9160405190847fd03940fb17cb0a1a204f69aebcdc5eb179c0d0c61f1d1a75872054468d7aa6655f80a28152a260017f9b779b17422d0df92223018b32b4d1fa46e071723d6817e2486d003becc55f0055005b60405162461bcd60e51b815260206004820152600f60248201526e1d1c985b9cd9995c8819985a5b1959608a1b6044820152606490fd5b633ee5aeb560e01b5f5260045ffd5b9181601f840112156101aa578235916001600160401b0383116101aa57602083818601950101116101aa57565b90602080835192838152019201905f5b8181106116fb5750505090565b82518452602093840193909201916001016116ee565b346101aa575f3660031901126101aa5760206040516101f48152f35b8054821015611746575f52600560205f20910201905f90565b634e487b7160e01b5f52603260045260245ffd5b90600182811c92168015611788575b602083101461177457565b634e487b7160e01b5f52602260045260245ffd5b91607f1691611769565b60a081019081106001600160401b0382111761083457604052565b6101a081019081106001600160401b0382111761083457604052565b90601f801991011681019081106001600160401b0382111761083457604052565b9060405191825f8254926117fd8461175a565b80845293600181169081156118685750600114611824575b50611822925003836117c9565b565b90505f9291925260205f20905f915b81831061184c575050906020611822928201015f611815565b6020919350806001915483858901015201910190918492611833565b90506020925061182294915060ff191682840152151560051b8201015f611815565b805180835260209291819084018484015e5f828201840152601f01601f1916010190565b600435906001600160a01b03821682036101aa57565b9060068210156108485752565b8054821015611746575f5260205f2001905f90565b6001600160401b03811161083457601f01601f191660200190565b3d1561192b573d90611912826118e6565b9161192060405193846117c9565b82523d5f602084013e565b606090565b919091601f8311611941575b505050565b81831161194d57505050565b5f5260205f206020601f830160051c9210611986575b81601f9101920160051c03905f5b8281101561193c575f82820155600101611971565b5f9150611963565b908060209392818452848401375f828201840152601f01601f1916010190565b6001600160401b0381116108345760051b60200190565b906119cf826119ae565b6119dc60405191826117c9565b82815280926119ed601f19916119ae565b0190602036910137565b5f19811461092d5760010190565b80518210156117465760209160051b010190565b9190820180921161092d57565b9190820391821161092d57565b929192611a3f826118e6565b91611a4d60405193846117c9565b8294818452818301116101aa578281602093845f960137010152565b60068210156108485752565b600154811015610487575f52600260205260405f2090600b82015460ff811615610fda5760081c60ff16611aa557565b630c339eed60e21b5f5260045ffd5b5f546001600160a01b03163303611ac757565b63118cdaa760e01b5f523360045260245ffd5b90600581019081546107d08102928184046107d0148215171561092d57600b602093611b2c6127107fc0bbbbb9235727bc9d37a913761ba2d30c583aaa91c6ed917137ac9bd6a570a397048095611a26565b8355611b3a84600654611a19565b600655019066038d7ea4c6800082549161010061ff001984161784555410611b68575b5050604051908152a2565b61ffff1916610100179055837fd03940fb17cb0a1a204f69aebcdc5eb179c0d0c61f1d1a75872054468d7aa6655f80a25f80611b5d56fe2325c0d2edfdef8f320e063f7ea01f3229283f13ee917cedf3361581d997f285a2646970667358221220da7c9208b42872e5eed6da4f3fa0de6ff9aca163957967e1054edc2e320f58f264736f6c63430008210033","linkReferences":{}},"methodIdentifiers":{"BAD_RESPONSE_THRESHOLD()":"763d3f96","MAX_PROTOCOL_FEE_BPS()":"6d947e4b","MIN_STAKE()":"cb1c2b5c","REGISTRATION_FEE_BPS()":"b59c599c","REPUTATION_BAD()":"3db33d52","REPUTATION_GOOD()":"2e3131ad","REPUTATION_MAX()":"c809232b","REPUTATION_START()":"cff0a654","SLASH_BPS()":"933cd8de","addStake(uint256)":"eb4f16b5","getOwnerServices(address)":"794dc9fe","getRatings(uint256)":"d18e2509","getService(uint256)":"ef0e239b","getServicesByCategory(uint8,uint256,uint256)":"33e66559","lastRatingTime(address,uint256)":"62788b44","owner()":"8da5cb5b","ownerServices(address,uint256)":"f3d55cef","rateService(uint256,uint8,string)":"7e2160a0","register(string,string,uint256,uint8)":"e1610e9b","renounceOwnership()":"715018a6","serviceCount()":"06237526","serviceRatings(uint256,uint256)":"480e9ffc","services(uint256)":"c22c4f43","slashService(uint256)":"7a91f2f0","transferOwnership(address)":"f2fde38b","treasuryBalance()":"313dab20","updateCapabilities(uint256,string,uint256)":"0bd9000a","withdrawAndExit(uint256)":"027fb252","withdrawTreasury(address)":"f86c9e9a"},"id":29}